{
    "_format": "hh-sol-artifact-1",
    "contractName": "Transactions",
    "sourceName": "contracts/Transactions.sol",
    "abi": [
        {
            "anonymous": false,
            "inputs": [
                {
                    "indexed": false,
                    "internalType": "address",
                    "name": "from",
                    "type": "address"
                },
                {
                    "indexed": false,
                    "internalType": "address",
                    "name": "receiver",
                    "type": "address"
                },
                {
                    "indexed": false,
                    "internalType": "uint256",
                    "name": "amount",
                    "type": "uint256"
                },
                {
                    "indexed": false,
                    "internalType": "string",
                    "name": "message",
                    "type": "string"
                },
                {
                    "indexed": false,
                    "internalType": "uint256",
                    "name": "timestamp",
                    "type": "uint256"
                },
                {
                    "indexed": false,
                    "internalType": "string",
                    "name": "keyword",
                    "type": "string"
                }
            ],
            "name": "transfer",
            "type": "event"
        },
        {
            "inputs": [
                {
                    "internalType": "address payable",
                    "name": "receiver",
                    "type": "address"
                },
                {
                    "internalType": "uint256",
                    "name": "amount",
                    "type": "uint256"
                },
                {
                    "internalType": "string",
                    "name": "keyword",
                    "type": "string"
                },
                {
                    "internalType": "string",
                    "name": "message",
                    "type": "string"
                }
            ],
            "name": "addToBlock",
            "outputs": [],
            "stateMutability": "nonpayable",
            "type": "function"
        },
        {
            "inputs": [],
            "name": "getAllTransactions",
            "outputs": [
                {
                    "components": [
                        {
                            "internalType": "address",
                            "name": "sender",
                            "type": "address"
                        },
                        {
                            "internalType": "address",
                            "name": "receiver",
                            "type": "address"
                        },
                        {
                            "internalType": "uint256",
                            "name": "amount",
                            "type": "uint256"
                        },
                        {
                            "internalType": "string",
                            "name": "message",
                            "type": "string"
                        },
                        {
                            "internalType": "uint256",
                            "name": "timestamp",
                            "type": "uint256"
                        },
                        {
                            "internalType": "string",
                            "name": "keyword",
                            "type": "string"
                        }
                    ],
                    "internalType": "struct Transactions.TransferStruct[]",
                    "name": "",
                    "type": "tuple[]"
                }
            ],
            "stateMutability": "view",
            "type": "function"
        },
        {
            "inputs": [],
            "name": "getTransactionCount",
            "outputs": [
                {
                    "internalType": "uint256",
                    "name": "",
                    "type": "uint256"
                }
            ],
            "stateMutability": "view",
            "type": "function"
        }
    ],
    "bytecode": "0x608060405234801561001057600080fd5b506107a6806100206000396000f3fe608060405234801561001057600080fd5b50600436106100415760003560e01c806327506f53146100465780632e7700f014610064578063357bb2a814610079575b600080fd5b61004e61008e565b60405161005b9190610634565b60405180910390f35b61006c610249565b60405161005b91906106f2565b61008c610087366004610509565b61024f565b005b60606001805480602002602001604051908101604052809291908181526020016000905b828210156102405760008481526020908190206040805160c0810182526006860290920180546001600160a01b039081168452600182015416938301939093526002830154908201526003820180549192916060840191906101139061071f565b80601f016020809104026020016040519081016040528092919081815260200182805461013f9061071f565b801561018c5780601f106101615761010080835404028352916020019161018c565b820191906000526020600020905b81548152906001019060200180831161016f57829003601f168201915b50505050508152602001600482015481526020016005820180546101af9061071f565b80601f01602080910402602001604051908101604052809291908181526020018280546101db9061071f565b80156102285780601f106101fd57610100808354040283529160200191610228565b820191906000526020600020905b81548152906001019060200180831161020b57829003601f168201915b505050505081525050815260200190600101906100b2565b50505050905090565b60005490565b600160008082825461026191906106fb565b90915550506040805160c0810182523381526001600160a01b0386811660208084019182529383018781526060840186815242608086015260a08501889052600180548082018255600091909152855160069091027fb10e2d527612073b26eecdfd717e6a320cf44b4afac2b0732d9fcbe2b7fa0cf6810180549287166001600160a01b031993841617815594517fb10e2d527612073b26eecdfd717e6a320cf44b4afac2b0732d9fcbe2b7fa0cf7820180549190971692169190911790945590517fb10e2d527612073b26eecdfd717e6a320cf44b4afac2b0732d9fcbe2b7fa0cf88401555180519394919361037f937fb10e2d527612073b26eecdfd717e6a320cf44b4afac2b0732d9fcbe2b7fa0cf9019291909101906103ef565b506080820151600482015560a082015180516103a59160058401916020909101906103ef565b5050507fdcd5b98ff1303a62dc4d27f8de74930f71856fbd87f72321094e86707a6197fc3385858442876040516103e1969594939291906105dc565b60405180910390a150505050565b8280546103fb9061071f565b90600052602060002090601f01602090048101928261041d5760008555610463565b82601f1061043657805160ff1916838001178555610463565b82800160010185558215610463579182015b82811115610463578251825591602001919060010190610448565b5061046f929150610473565b5090565b5b8082111561046f5760008155600101610474565b600082601f830112610498578081fd5b813567ffffffffffffffff808211156104b3576104b361075a565b604051601f8301601f1916810160200182811182821017156104d7576104d761075a565b6040528281528483016020018610156104ee578384fd5b82602086016020830137918201602001929092529392505050565b6000806000806080858703121561051e578384fd5b84356001600160a01b0381168114610534578485fd5b935060208501359250604085013567ffffffffffffffff80821115610557578384fd5b61056388838901610488565b93506060870135915080821115610578578283fd5b5061058587828801610488565b91505092959194509250565b60008151808452815b818110156105b65760208185018101518683018201520161059a565b818111156105c75782602083870101525b50601f01601f19169290920160200192915050565b6001600160a01b038781168252861660208201526040810185905260c06060820181905260009061060f90830186610591565b84608084015282810360a08401526106278185610591565b9998505050505050505050565b60208082528251828201819052600091906040908185019080840286018301878501865b838110156106e457888303603f19018552815180516001600160a01b039081168552888201511688850152868101518785015260608082015160c082870181905291906106a783880182610591565b92505050608080830151818701525060a080830151925085820381870152506106d08183610591565b968901969450505090860190600101610658565b509098975050505050505050565b90815260200190565b6000821982111561071a57634e487b7160e01b81526011600452602481fd5b500190565b60028104600182168061073357607f821691505b6020821081141561075457634e487b7160e01b600052602260045260246000fd5b50919050565b634e487b7160e01b600052604160045260246000fdfea2646970667358221220984d2f393a916f6d78f48087b52cda2d4b7fccbf80e601eef45e5b1217d3193864736f6c63430008000033",
    "linkReferences": {},
    "deployedLinkReferences": {}
}